:100000000C942A000C943C000C943C000C943C0092
:100010000C943C000C943C000C94BE020C943C00EC
:100020000C943C000C9406030C943C000C941003BC
:100030000C943C000C943C000C943C000C943C0050
:100040000C943C000C943C000C943C000C943C0040
:100050000C943C0011241FBECFE5D8E0DEBFCDBF1D
:1000600010E0A0E6B0E001C01D92A936B107E1F7AB
:100070000E9427030C9470030C9400004F3FD1F5AD
:100080008230B9F0833020F4813009F071C006C0AD
:100090008330D1F0843009F06BC021C02AB381E0F5
:1000A00090E002C0880F991F6A95E2F7282B2ABBBF
:1000B000089527B381E090E002C0880F991F6A95E8
:1000C000E2F7282B27BB089524B381E090E002C01B
:1000D000880F991F6A95E2F7282B24BB089521B356
:1000E00081E090E002C0880F991F6A95E2F7282B03
:1000F00021BB0895442309F03BC08230B1F0833026
:1001000018F48130A9F505C08330D9F0843081F529
:1001100024C02AB381E090E002C0880F991F6A953D
:10012000E2F7809582238ABB089527B381E090E0AF
:1001300002C0880F991F6A95E2F78095822387BBDA
:10014000089524B381E090E002C0880F991F6A955A
:10015000E2F78095822384BB089521B381E090E08B
:1001600002C0880F991F6A95E2F78095822381BBB0
:1001700008954130D1F58230B9F0833020F48130D8
:1001800009F071C006C08330D1F0843009F06BC033
:1001900021C02BB381E090E002C0880F991F6A95BF
:1001A000E2F7282B2BBB089528B381E090E002C032
:1001B000880F991F6A95E2F7282B28BB089525B36D
:1001C00081E090E002C0880F991F6A95E2F7282B22
:1001D00025BB089522B381E090E002C0880F991FEB
:1001E0006A95E2F7282B22BB0895442309F03BC00F
:1001F0008230B1F0833018F48130A9F505C0833026
:10020000D9F0843081F524C02BB381E090E002C0A6
:10021000880F991F6A95E2F7809582238BBB08951A
:1002200028B381E090E002C0880F991F6A95E2F739
:100230008095822388BB089525B381E090E002C0B9
:10024000880F991F6A95E2F78095822385BB0895F0
:1002500022B381E090E002C0880F991F6A95E2F70F
:100260008095822382BB0895823061F0833018F438
:100270008130D9F405C0833039F08430B1F40DC039
:1002800089B303C086B301C083B390E002C09595E3
:1002900087956A95E2F78170089580B390E002C077
:1002A000959587956A95E2F7817008958230A9F057
:1002B000833018F4813089F505C08330C9F084306B
:1002C00061F521C02BB381E090E002C0880F991F37
:1002D0006A95E2F728272BBB089528B381E090E0C8
:1002E00002C0880F991F6A95E2F7282728BB089556
:1002F00025B381E090E002C0880F991F6A95E2F76C
:10030000282725BB089522B381E090E002C0880F22
:10031000991F6A95E2F7282722BB0895823061F081
:10032000833018F4813069F405C0833039F08430AB
:1003300041F406C06BBB089568BB089565BB089582
:1003400062BB0895823061F0833018F4813069F423
:1003500005C0833039F0843041F406C06ABB08958B
:1003600067BB089564BB089561BB0895823099F01E
:10037000833018F4813051F505C08330A9F0843002
:1003800029F51BC0662319F48AB38F7002C08AB3A3
:10039000806F8ABB0895662319F487B38F7002C0FB
:1003A00087B3806F87BB0895662319F484B38F7079
:1003B00002C084B3806F84BB0895662321F481B3A7
:1003C0008F7081BB089581B3806F81BB08958230A7
:1003D00099F0833018F4813051F505C08330A9F0CD
:1003E000843029F51BC0662319F48AB3807F02C0CC
:1003F0008AB38F608ABB0895662319F487B3807F20
:1004000002C087B38F6087BB0895662319F484B355
:10041000807F02C084B38F6084BB0895662321F47B
:1004200081B3807F81BB089581B38F6081BB0895C4
:10043000823099F0833018F4813051F505C0833053
:10044000A9F0843029F51BC0662319F48BB38F7093
:1004500002C08BB3806F8BBB0895662319F488B3F9
:100460008F7002C088B3806F88BB0895662319F42B
:1004700085B38F7002C085B3806F85BB08956623F6
:1004800021F482B38F7082BB089582B3806F82BBE8
:100490000895823099F0833018F4813051F505C009
:1004A0008330A9F0843029F51BC0662319F48BB37F
:1004B000807F02C08BB38F608BBB0895662319F4D5
:1004C00088B3807F02C088B38F6088BB089566239D
:1004D00019F485B3807F02C085B38F6085BB089512
:1004E000662321F482B3807F82BB089582B38F603C
:1004F00082BB089583B7806483BF83B7886083BF5E
:1005000083B78F7E83BF83B7806283BF83B78E7FBD
:1005100083BF83B78D7F83BF83B7846083BF12BEE1
:1005200089B7816089BF8FB780688FBF08958EB506
:100530008F778EBD8EB582608EBD8FB58E7F8FBD5D
:100540008FB58D7F8FBD8EB5877F8EBD8EB58F7E2B
:100550008EBD8EB58E7F8EBD8EB58D7F8EBD8EB5D8
:1005600084608EBD89B7846089BF89B7806289BF86
:100570008FB780688FBF08958CBF08950F931F9326
:1005800080916000882359F41DBC1CBC109262004D
:10059000109261008EB58F7B8EBD81E032C08130BC
:1005A000C9F406B517B5609161007091620080E0F2
:1005B00090E02FEF3FEF40E050E00E945103060F24
:1005C000171F10936400009363008EB582608EBD88
:1005D00082E017C08230B9F406B517B560916100AA
:1005E0007091620080E090E02FEF3FEF40E050E03C
:1005F0000E945103060F171F1093660000936500B9
:1006000083E0809360001F910F91089580916100B5
:10061000909162000196909362008093610008952A
:100620008091670090916800019690936800809394
:1006300067008B37910551F48EEE82BF81E060E058
:100640000E94560110926800109267000895CF939F
:10065000DF9382E063E04FEF0E943E000E947A0247
:10066000C8ECD0E080E00E94BC0280E197E2FE018D
:100670003197F1F70197D9F784E30E94BC0280E13A
:1006800097E2FE013197F1F70197D9F78FE70E94C2
:10069000BC0280E197E2FE013197F1F70197D9F7AB
:1006A000E1CF629FD001739FF001829FE00DF11DA9
:1006B000649FE00DF11D929FF00D839FF00D749FDC
:1006C000F00D659FF00D9927729FB00DE11DF91F88
:1006D000639FB00DE11DF91FBD01CF0111240895E5
:0406E000F894FFCFBC
:00000001FF
