:100000000C942A000C943C000C943C000C943C0092
:100010000C943C000C943C000C943C000C943C0070
:100020000C943C000C943C000C943C000C94670134
:100030000C943C000C943C000C943C000C943C0050
:100040000C943C000C943C000C943C000C943C0040
:100050000C943C0011241FBECFE5D8E0DEBFCDBF1D
:1000600010E0A0E6B0E001C01D92A236B107E1F7B2
:100070000E947E010C94A8010C9400004130B1F55F
:10008000813099F0813030F08230D1F0833009F046
:1000900067C021C02AB381E090E002C0880F991F99
:1000A0006A95E2F7282B2ABB089527B381E090E0F8
:1000B00002C0880F991F6A95E2F7282B27BB089585
:1000C00024B381E090E002C0880F991F6A95E2F79F
:1000D000282B24BB089521B381E090E002C0880F53
:1000E000991F6A95E2F7282B21BB08954423C1F597
:1000F000813099F0813028F08230D9F0833081F559
:1001000024C02AB381E090E002C0880F991F6A954D
:10011000E2F7809582238ABB089527B381E090E0BF
:1001200002C0880F991F6A95E2F78095822387BBEA
:10013000089524B381E090E002C0880F991F6A956A
:10014000E2F78095822384BB089521B381E090E09B
:1001500002C0880F991F6A95E2F78095822381BBC0
:1001600008954130B1F5813099F0813030F082301E
:10017000D1F0833009F067C021C02BB381E090E05B
:1001800002C0880F991F6A95E2F7282B2BBB0895B0
:1001900028B381E090E002C0880F991F6A95E2F7CA
:1001A000282B28BB089525B381E090E002C0880F7A
:1001B000991F6A95E2F7282B25BB089522B381E0A9
:1001C00090E002C0880F991F6A95E2F7282B22BBA6
:1001D00008954423C1F5813099F0813028F08230B0
:1001E000D9F0833081F524C02BB381E090E002C0C8
:1001F000880F991F6A95E2F7809582238BBB08953B
:1002000028B381E090E002C0880F991F6A95E2F759
:100210008095822388BB089525B381E090E002C0D9
:10022000880F991F6A95E2F78095822385BB089510
:1002300022B381E090E002C0880F991F6A95E2F72F
:100240008095822382BB089508950895813049F0F6
:10025000813028F0823039F0833041F406C06BBB26
:10026000089568BB089565BB089562BB0895813009
:1002700049F0813028F0823039F0833041F406C0F3
:100280006ABB089567BB089564BB089561BB089578
:1002900083B7806483BF83B7886083BF83B78F7E53
:1002A00083BF83B7806283BF83B78E7F83BF83B7EB
:1002B0008D7F83BF83B7846083BF12BE89B781609F
:1002C00089BF8FB780688FBF08958CBF08958091D4
:1002D00060009091610001969093610080936000AE
:1002E0008B37910551F48EEE82BF80E060E00E9472
:1002F000250110926100109260000895CF93DF9362
:1003000081E063E041E00E943E000E944801C8ECA9
:10031000D0E080E00E94650180E197E2FE01319724
:10032000F1F70197D9F784E30E94650180E197E234
:10033000FE013197F1F70197D9F78FE70E94650128
:1003400080E197E2FE013197F1F70197D9F7E1CF0C
:04035000F894FFCF4F
:00000001FF
